:10000000C04D0020B514010019B10100091501000F
:100010000915010009150100091501000000000083
:100020000000000000000000000000002512010098
:100030000915010000000000D1110100B1AC010060
:100040007514010065C901007514010075140100E3
:100050007514010075140100751401007514010078
:100060002DC9010075140100751401004BC9010070
:100070007514010075140100751401007514010058
:100080007514010075140100751401007514010048
:100090007514010075140100751401007514010038
:1000A0007514010075140100751401007514010028
:1000B0007514010075140100751401007514010018
:1000C0007514010075140100751401007514010008
:0C00D00075140100751401007514010086
:1000DC0053B94AB9002908BF00281CBF4FF0FF31A3
:1000EC004FF0FF3000F074B9ADF1080C6DE904CE9F
:1000FC0000F006F8DDF804E0DDE9022304B07047F7
:10010C002DE9F047089E0D4604468846002B4DD13C
:10011C008A42944668D9B2FA82F252B101FA02F3D9
:10012C00C2F1200120FA01F10CFA02FC41EA0308A9
:10013C0094404FEA1C45210CB8FBF5FE1FFA8CF7D6
:10014C0005FB1E8341EA03430EFB07F199420BD9D1
:10015C001CEB03030EF1FF3080F01E81994240F23C
:10016C001B81AEF1020E63445B1AA4B2B3FBF5F033
:10017C0005FB103344EA034400FB07F7A7420AD9F6
:10018C001CEB040400F1FF3380F00881A74240F21D
:10019C00058164440238E41B40EA0E4000211EB184
:1001AC00D4400023C6E90043BDE8F0878B4208D950
:1001BC00002E00F0EE800021C6E900050846BDE8DF
:1001CC00F087B3FA83F100294AD1AB4202D38242C1
:1001DC0000F2F980841A65EB030301209846002E87
:1001EC00E2D0C6E90048DFE702B9FFDEB2FA82F2DC
:1001FC00002A40F09180A1EB0C054FEA1C471FFA36
:10020C008CFE0121B5FBF7F307FB1350250C45EAD7
:10021C0000450EFB03F0A84208D91CEB050503F1C1
:10022C00FF3802D2A84200F2CB8043462D1AA4B26A
:10023C00B5FBF7F007FB105544EA05440EFB00FE36
:10024C00A64508D91CEB040400F1FF3502D2A645E3
:10025C0000F2BB802846A4EB0E0440EA03409EE764
:10026C00C1F120078B4022FA07FC4CEA030C20FA60
:10027C0007F405FA01F31C43FD404FEA1C4900FA50
:10028C0001F3B5FBF9F8200C1FFA8CFE09FB18558D
:10029C0040EA054508FB0EF0A84202FA01F20BD920
:1002AC001CEB050508F1FF3A80F08880A84240F26B
:1002BC008580A8F1020865442D1AA4B2B5FBF9F0AB
:1002CC0009FB105544EA054500FB0EFEAE4508D966
:1002DC001CEB050500F1FF346CD2AE456AD902382F
:1002EC00654440EA0840A0FB0294A5EB0E05A5422C
:1002FC00C846A64656D353D05EB1B3EB080265EBA5
:10030C000E0505FA07F722FA01F3CD401F43C6E9A3
:10031C0000750021BDE8F087C2F1200320FA03F13B
:10032C000CFA02FC25FA03F395400D434FEA1C47E7
:10033C001FFA8CFEB3FBF7F107FB11302B0C43EAD1
:10034C00004301FB0EF0984204FA02F408D91CEBAE
:10035C00030301F1FF382FD298422DD9023963449F
:10036C001B1AADB2B3FBF7F007FB103345EA03459C
:10037C0000FB0EF3AB4208D91CEB050500F1FF386E
:10038C0016D2AB4214D902386544ED1A40EA014149
:10039C0038E73146304607E78646E5E61846FAE682
:1003AC004B45A9D2B9EB020864EB0C0E0138A3E75C
:1003BC004046EAE7204694E74146D1E7D0467BE742
:1003CC00023B654432E7084609E76444023842E7D9
:1003DC00704700BFF8B515460A4A1C4656682EB140
:1003EC0001B02A46B446BDE8F040604700208DF8C5
:1003FC00000068460BF044F89DF80000281A2070A5
:10040C000020F8BD00000020014800787047000073
:10041C000800002005490A78904201D3002070475B
:10042C00496800EBC00001EB800070470800002019
:10043C0070B50546202A27D019481A4C00EB831CAE
:10044C000CEB420004EB8303202922D00CEB41017E
:10045C0040784C784870204601460CEB41009142A4
:10046C0005704078F8D193F82220202A1ABF0CEBA3
:10047C004202547083F8214020220CEB410C8CF882
:10048C00012083F8221070BD40F29121702003F0FE
:10049C00E5F893F82040407883F82000DBE7000073
:1004AC004C0C0020CC0C00202DE9FF4F0C46498948
:1004BC0087B001F5E1611546814200F2DA8005AAA8
:1004CC0002A902F09FF802980A9F284420F07F406E
:1004DC000490A948A94E00EB8700039090F8205097
:1004EC002020E9460DF104088DF8000006F5407A4D
:1004FC00202D18BF0AEB871B26D000BF05EB45004B
:10050C0006EBC0002168C268891A0902CA1701EB00
:10051C0012610830091217D4618971B1418961B92E
:10052C0000F0B4FD02F052F82168081A0002C1175D
:10053C0000EB11600012332806DB0BEB450089F849
:10054C0000504578202DD9D199F8000088F800008A
:10055C00A146202D1CBF8A4800EB871B00F00881A8
:10056C0005EB450106EBC10AD9F80410DAF80820AE
:10057C004846511A0902CA1701EB12610AF1080721
:10058C00091215D47989002900F0F28041890029DB
:10059C0040F0EE8000F07AFD02F018F83968081A85
:1005AC000002C11700EB11600012332880F2E080CA
:1005BC0088F800509AF8141099F80C00814206D96A
:1005CC000BEB45004578202DCAD100F0D1B89DF831
:1005DC00040000EB400006EBC005688AEF680028B9
:1005EC003FD16089E8B3A8680AF075FF698A2A7C54
:1005FC001144491C634A4318904204D940F21661D5
:10060C00702003F02BF86048814204DD40F2176142
:10061C00702003F023F85D48814204DA4FF4C36183
:10062C00702003F01BF85A489842DCBF03F5F7031F
:10063C00A3F1F85305DD002BBCBFA3F5F70303F1C1
:10064C00F853184601F0C2FF20F07F40391A090216
:10065C00CA1701EB126109123329BCBF333020F0E9
:10066C007F470498381A0002C11700EB1160001282
:10067C0003D40BB00020BDE8F08FD4E90010401A71
:10068C00384427F07F4120F07F40C4E900100398E4
:10069C00DDF828806F4690F8205020200DF1040AD8
:1006AC008DF80000202D1CBF354800EB881924D094
:1006BC0005EB450006EBC0002268C168511A09021F
:1006CC00CA1701EB12610830091216D4618971B195
:1006DC00418961B900F0DAFC01F078FF2168081A51
:1006EC000002C11700EB11600012332805DB09EB87
:1006FC0045003D704578202DDAD138788AF8000015
:10070C002746202D1CBF1E4800EB881B30D005EB64
:10071C00450106EBC1097968D9F808203846511A09
:10072C000902CA1701EB126109F10808091212D467
:10073C00B8F80A10E1B14189D1B900F0A7FC01F079
:10074C0045FFD8F80010081A0002C11700EB116021
:10075C00001233280CDA8AF8005099F81400397B0F
:10076C0088427FF634AF0BEB45004578202DCED177
:10077C000BB00120BDE8F08FCC0C00204C09002000
:10078C004C0C0020FF7F841E0020A10700E05EF8C7
:10079C000080841E2DE9F05F04463C480E4600EBB9
:1007AC0086003B4F90F820502020984692461070BF
:1007BC0007F54079202D18BF09EB861B28D000BF08
:1007CC0005EB450007EBC00000F10801C06822688A
:1007DC00101A0002C21700EB1260001218D46089C4
:1007EC0078B1488968B9084600F050FC01F0EEFE7B
:1007FC002168081A0002C11700EB1160001233289F
:10080C0006DB0BEB45008AF800504578202DD7D13C
:10081C009AF8000088F80000202D18BF09EB861A02
:10082C0030D005EB450107EBC1096168D9F8082008
:10083C002046511A0902CA1701EB126109F1080688
:10084C00091210D47189E9B14189D9B900F01EFCA3
:10085C0001F0BCFE3168081A0002C11700EB1160F0
:10086C00001233280EDA88F8005099F81400217B16
:10087C00884202D80020BDE8F09F0AEB450045787D
:10088C00202DCED10120BDE8F09F0000CC0C002023
:10089C004C0900202DE9F74F4FF0000898B0164690
:1008AC000D46C34602F00AF90446012D18BF022D6D
:1008BC0005D040F693114FF0700002F0CFFEFD49C9
:1008CC0001200860FC498968086000200C90401EDB
:1008DC000E90FA4906EB460001EBC00308330FAF4C
:1008EC000FCB87E80F000FA800F0D0FB0D90F3485A
:1008FC00BDF84690B0F89C03ADF84C00B9F1000F70
:10090C0014BF4FF0010A4FF0000A0F981490BAF17F
:10091C00000F09D0EA4890F82C0028B902F03AFEF2
:10092C00002808BF012700D00027E64800221592B6
:10093C0000781646012818BF032840D1E148B0F8CA
:10094C000280A8EB09001590C84538D90D9B6FEAB9
:10095C000801DFF874E358180DF10C0C17AA734555
:10096C0004D940F21661702002F078FED74B994200
:10097C0004DD40F21761702002F070FED44B9942F6
:10098C0004DA4FF4C361702002F068FED149814251
:10099C00DCBF00F5F700A0F1F85005DD0028BCBF66
:1009AC00A0F5F70000F1F850614601F02BFE03981A
:1009BC000F9920F07F400390081A20F07F42002FFF
:1009CC0018BF322604D19DF84C00002818BF02260F
:1009DC00B4F1807F08D00F98001B0002C11700EB08
:1009EC0011600012012802DA042118980BE047B1BB
:1009FC00B34890F82D0020B19DF84C00061C18BF90
:100A0C00022620460121B9F1000F02D0159B1E2BA6
:100A1C0002DA9DF84C3013B14FF0010B491E8B19C3
:100A2C00A8499DF84DE0097815910F99891A21F084
:100A3C007F4CACEB00010902CE1701EB16610912D9
:100A4C00994218DB002A18BFCDF83CC00F9E0597C1
:100A5C00002701F02DFF301A0002C11700EB1160C6
:100A6C0000123E283FDA012D20D0701E059920F08F
:100A7C007F4019B32DE082B1BEF1000F04BF159970
:100A8C0003290AD027B99DF84C10002918BF9B1ECA
:100A9C0000228DF84C209046C7E707BB9DF84C1000
:100AAC00E9B100218DF84C109B1EBEE7B4F1807F9C
:100ABC0020D140F60C11702002F0D0FDB4F1807FF3
:100ACC0007D0211A0902CA1701EB12610912042975
:100ADC0003DD044601F0F2FE0CE000290ADD1BB038
:100AEC000020BDE8F08F701E20F07F44204601F0FE
:100AFC00E5FE5746B4F1807F28D00F98DDF840C052
:100B0C00001B8BF00103744A20F07F40ACEB040C0B
:100B1C002CF07F4C834298BFB0F5800FDFD262453A
:100B2C00DDD320460AF0D7FC67490D9A4B1C161AE8
:100B3C00B6EB930F24BFA0EB020CBCEB930F10D3BE
:100B4C00B14208D2081A1044461C0AE040F62B2188
:100B5C00702002F083FD61452CD2891A0844401C98
:100B6C0046425748807F50B3284645464FF0000B0D
:100B7C00D846012805D0022002F0E8F8012002F046
:100B8C00E5F8A9452CD2A6EB05014FF001034FF077
:100B9C0003024FF0020002F011F8002808BF4FF0DA
:100BAC000108B9F1000F35D00123A6EB090103228E
:100BBC00184623E040F60B31702002F04FFDC14582
:100BCC0034BF40464846BBF1000F14BF00211E2124
:100BDC000844B042C8DB40F63E21702002F03EFDD6
:100BEC0010D90123A6EB09010322184601F0E6FFF8
:100BFC0028B37DB1711B01230322022001F0DEFF1B
:100C0C00E8B107E055EA090004D040F676117020EF
:100C1C0002F024FD012303223146002001F0CEFF17
:100C2C0068B10125B8F1000F03D014980F908DF81E
:100C3C004CB0DFF8A880BAF1000F0ED109E0022009
:100C4C0002F084F8012002F081F81BB00020BDE80E
:100C5C00F08F1B4890F82D0000B14FB3DFF860A067
:100C6C009AF82C0018B102F03FFB8AF82CB007B3AD
:100C7C00A4F1320020F07F414FF40020C8F80000AE
:100C8C0000230322052001F099FF68B34FF0804444
:100C9C00052002F021F91249C1F81005C1F81445DC
:100CAC001049E0120860064C94F82D00F0B35BE09C
:100CBC001BE01FE008050040100000204C0900203C
:100CCC00CC0C002012000020FF7F841E0020A10706
:100CDC0000E05EF80080841EFFFF3F0008F5014035
:100CEC0098F0014004F5014035E0DFF8B8A09AF81F
:100CFC002C0058B32B4C94F82D0050B14FF400201D
:100D0C00C8F80000052002F021F802F055FB84F829
:100D1C002DB00CAC244894E80E10C0F88013C0F829
:100D2C008423C0F88833C0F88CC300E018E010AC02
:100D3C0094E80E10C0F89013C0F89423C0F89833C0
:100D4C00C0F89CC31BB00120BDE8F08F02F0E8FA9C
:100D5C008AF82C508BE740F25131702002F07EFC67
:100D6C0002F01CFB84F82D50A6EB0900A0F1190130
:100D7C00002904DC40F66821702002F06FFC03228D
:100D8C000123104601F01AFF38B108488068C0F8FA
:100D9C0000B00748C0F800B0BBE740F673217020E4
:100DAC0002F05CFCCC0C00204C0900201000002050
:100DBC00080500402DE9F043064683B0087890738F
:100DCC00CF7A5773887A10730889144650810D4670
:100DDC000A785F4999464FEA810C4B42ACF1010805
:100DEC005AB1C043D5F8048004F1080288423DDDB5
:100DFC0040F21761702002F031FCEE686D686FEA0A
:100E0C00000904F1080206EB0900464504D940F23A
:100E1C001661702002F022FC8945E9DC994528DB3B
:100E2C008445DCBF00F5F700A0F1F85005DD002883
:100E3C00BCBFA0F5F70000F1F850214601F0E2FB31
:100E4C00206820F07F417019401C2160002F08BFE2
:100E5C007A3003D0012F08BF44302DD101F0B6FBFE
:100E6C0020F07F40606003B0BDE8F08301469842FB
:100E7C0004DA4FF4C361702002F0F0FB8445DCBF50
:100E8C00A1F1F450A0F5902005DD0028BCBF01F1C4
:100E9C00F45000F59020214601F0B4FB2068002F9F
:100EAC0020F07F4108F10100216008BF7A3008D0A2
:100EBC00012F08BF443004D040F2BE61702002F014
:100ECC00CDFB01F083FB20F07F416160608901AABA
:100EDC00694601F097FB1F4890F82F10202923D06A
:100EEC000069401D20F07F40D4E90021891A206060
:100EFC00084420F07F4060604B4632462146E8684B
:100F0C00FFF7D2FA00281CBF03B0BDE8F083D4E988
:100F1C000010401A304426F07F4120F07F40C4E995
:100F2C00001003B0BDE8F083608906F1090720B119
:100F3C0002F030FB002808BF323707484178009890
:100F4C00814284BF081A074427F07F40CCE7000099
:100F5C000020A107CC0C00201200002010B5154C6D
:100F6C0094F82F00202818BF10BD94F82E2004EB05
:100F7C00820090F82010202917D0DFF83CC00CEB31
:100F8C00821303EB41035B7880F82030012380F857
:100F9C00233084F82B3084F82F10022000F0B0F8A6
:100FAC00002084F82A00A07710BD40F29E317020FA
:100FBC0002F054FBCC0C00204C0C00202DE9F05F0F
:100FCC00DFF8B88098F82E5008EB850090F8214097
:100FDC00202C08BFBDE8F09FDFF8A4B0DFF8A4A078
:100FEC00AAF540790AEB8517072617F81400012893
:100FFC000ED0042808BF02260AD005280CBF0326F1
:10100C00062805D040F6D8014FF0700002F026FB00
:10101C00BBF1000F18BFAFF30080EFF3108072B676
:10102C0007EB44014A7808EB850181F8212091F8FF
:10103C002220A24204BF202281F82220B8B12A46E5
:10104C002146012000F05CF804EB440109EBC100DF
:10105C0059F8312040683146904798F82E5008EBEB
:10106C00850090F82140202CBCD1BDE8F09F0648AB
:10107C00002818BFAFF3008062B6E0E7CC0C00206C
:10108C00000000004C0C00200000000010B50446CD
:10109C0000680AF020FA02466089217A144B084451
:1010AC00411C50189A4204D940F21661702002F08B
:1010BC00D5FA104A914204DD40F21761702002F01B
:1010CC00CDFA0D4A914204DA4FF4C361702002F05C
:1010DC00C5FA0A498142DEBF00F5F700A0F1F850CD
:1010EC0010BD0028BCBFA0F5F70000F1F85010BDF2
:1010FC00FF7F841E0020A10700E05EF80080841EA4
:10110C00DFF854C010B500230CEB821C07281ED24C
:10111C00DFE800F0050505050404040001230CF8C4
:10112C001100002B08BF10BD0C4800EB820292F896
:10113C00220020280EBF82F821100CEB40004170D9
:10114C0020200CEB4103587082F8221010BD40F2A5
:10115C006721702002F082FA4C0C0020CC0C00208D
:10116C002DE9F34F83B05C48049900EB81000190AA
:10117C0090F8204003982546012818BF022805D076
:10118C0040F6AF214FF0700002F068FA0027202DD6
:10119C004AD0514800910026807F002808BF0226C3
:1011AC0001F086FBDFF838A104EB44010AEBC10126
:1011BC00DFF828918A68C968121A091A22F07F424E
:1011CC0021F07F41964298BFB2F5800F01D289453C
:1011DC0028D2444A009902EB811B22460BEB4201B8
:1011EC004C78202C16D004EB44010AEBC10CDCF833
:1011FC000880DCF80CC0A8EB000828F07F48ACEBAA
:10120C00000121F07F41464598BFB8F5800FE4D22C
:10121C008945E2D3202A05D020210420009BFFF72A
:10122C0007F90446AC4215D12F48002818BFAFF37C
:10123C00008001F03DFB284C94F8301020290DD093
:10124C00E168821C511A0902CA1701EB12610912DA
:10125C00002903DD05B00020BDE8F08F202D0DD056
:10126C002A460399FFF716FB58B3019880F82370B0
:10127C0084F8305005B00120BDE8F08F94F82C00B4
:10128C0018B102F031F884F82C7094F82D0050B19C
:10129C0016494FF400200860052001F057FD02F0BC
:1012AC008BF884F82D70042001F050FD01F0B6FD90
:1012BC00202084F830000E48806807600D480760D5
:1012CC00D8E72A4620210420049BFFF7B1F805B08B
:1012DC000020BDE8F08F0000CC0C0020FFFF3F0089
:1012EC004C0900204C0C00200000000008F50140C7
:1012FC001000002008050040064910B591F82F2079
:10130C00202A1CBF887710BD40F2FD31702002F0FE
:10131C00A5F90000CC0C00202DE9F04F5B4E814666
:10132C0085B096F82F008A4620284DD096F82F00CD
:10133C0006F10C0400EB4000A6F5607808EBC00742
:10134C0020208DF8000096F82E0003AA06EB8000F2
:10135C0001A990F82050306902903068484401F09F
:10136C0051F9F86801994A4A0844A9F1640191427B
:10137C002FD8B968411A21F07F41B1F5800F28D2DE
:10138C0020F07F406060304684F80CA090F82E006E
:10139C00EA46202D1CBF3F4901EB801B3CD005EBDE
:1013AC00450008EBC0076068BA682146101A0002B5
:1013BC00C21700EB126007F1080600121BD47089EB
:1013CC0050B3488948B127E040F67331702002F0E1
:1013DC0045F905B00120BDE8F08F2046FFF756FE19
:1013EC0001F0F4F83168081A0002C11700EB116023
:1013FC000012332810DA8AF80050397D207B8142A4
:10140C0005D80298606005B00220BDE8F08F0BEBA8
:10141C0045004578202DC2D1052001F097FC1B4CCE
:10142C004FF0FF30A06094F82E309DF80020202162
:10143C00202A13BF052004EB830090F82000FEF750
:10144C00F7FF94F82E20134901EB821194F82F200A
:10145C0001EB42014870206848442060012084F868
:10146C002B00607E012805D12069401E20F07F40B2
:10147C0001F0BEFA9DF80000202803D00648407801
:10148C0002F0BCF905B00020BDE8F08FCC0C0020B8
:10149C009C1FA1074C0C0020100000200246144B8E
:1014AC0010B508449A4204D940F21661702002F03B
:1014BC00D5F8104A914204DD40F21761702002F019
:1014CC00CDF80D4A914204DA4FF4C361702002F05A
:1014DC00C5F80A498142DEBF00F5F700A0F1F850CB
:1014EC0010BD0028BCBFA0F5F70000F1F85010BDEE
:1014FC00FF7F841E0020A10700E05EF80080841EA0
:10150C00104A0B1A02F1010CB3EB9C0F3CBF1846AE
:10151C00704710B5441AB4EB9C0F3CBF184610BD75
:10152C009A4203D2101A0844401C10BDA24204D2A5
:10153C00511A0844401C404210BD40F60B3170203B
:10154C0002F08CF8FF7F841E0E4910B591F82F0025
:10155C00202812D091F82F00A1F5607200EB40000A
:10156C0002EBC00091F82F10406801EB410152F8DA
:10157C003120BDE810400421104740F6BB0170201B
:10158C0002F06CF8CC0C002070B56A4D6A4901264B
:10159C0005F5607408287DD2DFE800F0046197A996
:1015AC00C643AEB394F82C0018B901F0B9FE84F818
:1015BC002C60E08A10B101F0EDFF88B1FFF7CEFC92
:1015CC0084F82960A168B1F1FF3F05D00123032203
:1015DC00052001F0F3FA40B1607E012810D109E03A
:1015EC0040F66F01702002F039F840F6740170205B
:1015FC0002F034F82069401E20F07F4001F0F8F929
:10160C0094F82F0094F82F1000EB400005EBC0006D
:10161C00406801EB410155F83120BDE870400121D3
:10162C001047FFF79BFC4FF0FF30A06094F82900A7
:10163C0080B194F82F0094F82F1000EB400005EBCC
:10164C00C000406801EB410155F83120BDE8704005
:10165C000621104740F68501702001F0FFFFFFF7CF
:10166C007DFC84F8286001F095FF18B194F82C00EB
:10167C0028B108E040F69501702001F0EFFF01F071
:10168C004FFE84F82C6094F82D0068B14FF40020C4
:10169C002A4900E048E00860052001F057FB01F002
:1016AC008BFE002084F82D0094F82F0094F82F1056
:1016BC0000EB400005EBC000406801EB410155F820
:1016CC003120BDE870400021104701F0F1FBE08AA9
:1016DC0010B101F05FFF28B119480078032808BF4A
:1016EC00667770BD4FF40A61702001F0B7FF1548A2
:1016FC0006608868066070BD0878BDE8704002F02E
:10170C007DB8FFF72BFC94F82F0094F82F1000EB0A
:10171C00400005EBC000406801EB410155F8312059
:10172C00BDE870400521104740F6B301702001F070
:10173C0095FF00004C0900201000002008F5014026
:10174C001200002008050040034810B5407809F04D
:10175C00C2FE80B210BD0000120000202DE9F34F34
:10176C008246D1488BB00068D04DC005C00D0ED05C
:10177C00103840B20028B8BF00F00F0000F1E02094
:10178C00ACBF90F8000490F8140D40090DD00C98E3
:10179C004FF0000B0078002818BF012818D040F239
:1017AC005C714FF0700001F059FF95F82F004FF06D
:1017BC00010B202807D00C98007848B14FF4EB614E
:1017CC00702001F04BFF40F25571702001F046FF84
:1017DC00B74C24B1002140F25F70AFF30080B549E3
:1017EC000AEB4A0001EBC0004FF00108009024B155
:1017FC00002140F26770AFF30080B8F1000F09D000
:10180C0095F82E604FF0000985F82B90BBF1000F76
:10181C0007D02EE0A848002818BFAFF3008062B6AE
:10182C00EEE73746012020EA0706A448402200EBE9
:10183C00871100EB861009F0BCFF24B1002140F2A7
:10184C00DA50AFF3008005EB870105EB8600096ADF
:10185C00016224B1002140F2DE50AFF3008024B1CC
:10186C00002140F27170AFF3008095F82B00002836
:10187C00BDD124B1002140F27B70AFF3008001F0A8
:10188C0017F88046334606AA0C99FFF793FA24B151
:10189C00002140F28270AFF30080884906A801EB6A
:1018AC00861717F81A10012918BF02293ED106997C
:1018BC00079BA1EB0801824A21F07F41A3EB0803AF
:1018CC0023F07F4302296AD3B1F5800F67D29A4285
:1018DC0065D34FF0010901AB05AA3146FEF75AFF5B
:1018EC00002864D09DF814109DF8042033468A42D9
:1018FC0061D00520FEF79CFD4FEA000107EB4A0082
:10190C0041709DF81400202803BF05EB860080F879
:10191C0020A080F8239007EB400018BF80F801A0AE
:10192C00324651465FF00300FFF7EAFB05EB8600F9
:10193C0090F8237024B1002140F28970AFF300803D
:10194C006048002818BFAFF30080EFF3108872B620
:10195C0024B1002140F28F70AFF3008095F82B007A
:10196C0000287FF444AF24B1002140F29770AFF30C
:10197C0000800DF1180E00989EE80E1000F1080082
:10198C00B9F1000F80E80E1042D024B1002140F2D2
:10199C00A470AFF30080BBF1000F2BD115E03246E1
:1019AC0051460420FFF7ACFB4FF00109BEE732466D
:1019BC0051460420B8E7202919BF07EB41004178B4
:1019CC0005EB860090F8201098E79FB195F82F0052
:1019DC0020280FD124B1002140F2A970AFF3008070
:1019EC0031460220FFF7BCFB20B90C980078E8B315
:1019FC00012849D024B1002140F2C670AFF3008019
:101A0C0085F82E60012085F82B0000BF4FF00109EE
:101A1C0024B1002140F2CF70AFF30080B8F1000F79
:101A2C003BD024B1002140F2D370AFF30080B9F168
:101A3C00000F11D095F82E0005EB800090F82100D6
:101A4C00202809D024B1002140F2DA70AFF30080D5
:101A5C001D48407801F0D2FE24B1002140F2DF7025
:101A6C00AFF300800DB04846BDE8F08FFFE724B11E
:101A7C00002140F2B170AFF3008095F82E20514652
:101A8C000420FFF73DFBC1E7002C3FF4B0AE002172
:101A9C0040F2BC70AFF30080A9E60748002818BFDD
:101AAC00AFF3008062B6BCE704ED00E0CC0C002084
:101ABC00000000004C090020000000004C0C00202D
:101ACC00FFFF3F0000000000100000202DE9F14F47
:101ADC00A34886B00068C005C00D11D0103840B2C4
:101AEC000028B8BF00F00F0000F1E020ACBF90F868
:101AFC00000490F8140D400908BF4FF0010901D003
:101B0C004FF000090698007800284FF000001CBF29
:101B1C0007B0BDE8F08FDFF84CA2934D934C4FF01B
:101B2C00000B049025B1002140F26560AFF30080FA
:101B3C0094F82E6084F82BB04FF0000825B10021EA
:101B4C0040F26A60AFF30080B9F1000F1DD1374647
:101B5C00012020EA07068648402200EB871100EBA3
:101B6C00861009F026FE25B1002140F2DA50AFF3C1
:101B7C00008004EB870104EB8600096A016225B141
:101B8C00002140F2DE50AFF3008025B1002140F27D
:101B9C007260AFF3008000F08BFE074633466A4656
:101BAC000699FFF707F925B100214FF4CF60AFF389
:101BBC00008094F82F00202814D020690099091A6D
:101BCC000902CA1701EB126109120BD5DDE90021DC
:101BDC00891A20F07F42084420F07F40CDE9002094
:101BEC004FF001084DB1002140F28260AFF300804C
:101BFC0000214FF4D160AFF3008000980199C01B15
:101C0C00C91B20F07F4021F07F41B0F5800F05D239
:101C1C008A4503D3B9F1000F0CD103E0B9F1000FE1
:101C2C0038D094E033463A4669465248FEF73CFCBD
:101C3C0048EA0008B8F1000F22D0009809F04BFCDC
:101C4C00BDF80A109DF808204B4B1144491C421852
:101C5C00984241D8474881425ADC404281425FDB7E
:101C6C00581C9042DCBF02F5F702A2F1F85205DDD8
:101C7C00002ABCBFA2F5F70202F1F8520698C26026
:101C8C0001200490002D62D0002140F29B60AFF344
:101C9C0000805CE0BDF80A0005AA04A900F0B2FCC3
:101CAC0094F82F0020281CD02069401D20F07F4084
:101CBC00DDE90021891A014421F07F41CDE90001C1
:101CCC0009F009FCBDF80A109DF808202A4B1144B4
:101CDC00491C4218984218D940F21661702001F044
:101CEC00BDFCBDF80A0007F1090620B101F052FC59
:101CFC00002808BF3236214841780498814284BFBD
:101D0C00081A064426F07F40D2E71A48814204DDC7
:101D1C0040F21761702001F0A1FC1948814204DAED
:101D2C004FF4C361702001F099FC16489042DCBF5F
:101D3C0002F5F702A2F1F85205DD002ABCBFA2F5AC
:101D4C00F70202F1F8520698C2600120049094F850
:101D5C002B0000287FF4E6AE049807B0BDE8F08FA6
:101D6C0004ED00E0FFFF3F0000000000CC0C002061
:101D7C004C0C00200020A107FF7F841E12000020C5
:101D8C0000E05EF80080841E2DE9F14F804D8CB090
:101D9C0095F82E000020099001207E4C4FF0000891
:101DAC00A5F180078346089024B1002140F2EE7023
:101DBC00AFF30080089890B385F82B8024B10021F4
:101DCC0040F2F370AFF3008095F82E9040222BEA8E
:101DDC00090607EB861007EB8911824609F0E9FC2E
:101DEC0024B1002140F2DA50AFF3008005EB8600FD
:101DFC0005EB89010090096A016224B1002140F2CF
:101E0C00DE50AFF3008095F82B0080B1002C1CBF86
:101E1C00002140F2F970C7D0AFF30080C4E7FFE7B0
:101E2C005D48002818BFAFF3008062B6C4E724B148
:101E3C00002140F2FD70AFF300800C981AF81000EE
:101E4C00032878D1DDF80090CDF818900C9999F80A
:101E5C002000884214BF4FF0000A4FF0010A09F12C
:101E6C00200C8646202207EB861303E0024603EB88
:101E7C0042004078884202D020280AD0F6E7202879
:101E8C0007D0864507D103EB4E0040788CF8000054
:101E9C0007E040460CE003EB400003EB42014078C6
:101EAC00487024B1002140F24450AFF300805846F2
:101EBC0010EA0A0F18BF89F823B0E0B324B100214F
:101ECC0040F60200AFF30080324601200C99FFF778
:101EDC0017F9069890F8239024B1002140F60D00D4
:101EEC00AFF300802D48002818BFAFF30080EFF34C
:101EFC00108072B6089024B1002140F61200AFF3A6
:101F0C00008095F82B0038B1002C1CBF002140F646
:101F1C0016003FF449AF7FE7B9F1000F08D095F8F0
:101F2C002F00202804D131460220FFF719F9F8B10F
:101F3C0034B1002100E009E040F62A00AFF3008044
:101F4C0085F82E6085F82BB00120099024B1002172
:101F5C0040F63300AFF30080089888B124B100211B
:101F6C0040F63700AFF3008009980DB0BDE8F08F54
:101F7C00002CF1D0002140F62500AFF30080E6E7FD
:101F8C000548002818BFAFF3008062B6E6E70000F2
:101F9C00CC0C00200000000000000000000000003D
:101FAC00202824BF0020704700EB4000034B43F86F
:101FBC00301003EBC0004260012070474C09002038
:101FCC0010B5202811D20E4991F82E30A1F18002C3
:101FDC0002EB831C1CF810303BB191F82E3002EB55
:101FEC00831212F81020012A01D0002010BD91F8A4
:101FFC002E2001460020FFF783F8012010BD0000C1
:10200C00CC0C00202DE9F05F7E4E804696F82E0019
:10201C00A6F1800707EB801010F81800002865D097
:10202C0096F82E90784D25B1002140F6B930AFF3DB
:10203C00008007EB891414F81800012818D0C0B2DE
:10204C0004281CBF0528062855D02DB14FF00001DF
:10205C0040F6C530AFF3008001F026FC25B100211D
:10206C0040F6C930AFF3008014F818000128E6D10F
:10207C00012425B100214FF43D60AFF30080A4B3DF
:10208C00002086F82B0025B1002140F6D530AFF3A7
:10209C00008096F82EB0012020EA0B0907EB8B117B
:1020AC0007EB8910402209F084FB25B1002140F296
:1020BC00DA50AFF3008006EB8B0006EB890A006A5E
:1020CC00CAF8200025B1002140F2DE50AFF30080A9
:1020DC0096F82B00E0B1002D1CBF002140F6DB3040
:1020EC00C7D000BFAFF30080C3E70AE04FF43B61F9
:1020FC00702001F0B3FA4A4641460120FFF700F880
:10210C00ACE74248002818BFAFF3008062B6B7E7CF
:10211C0025B1002140F6DF30AFF300809AF8213072
:10212C000AF1210140461C464FF0200B07EB8912A7
:10213C000AF1220A04E0A34602EB4B0C9CF8014086
:10214C00844202D0202C2BD0F5E7202C28D0A3429F
:10215C0004D102EB43004078087005E002EB440028
:10216C0002EB4B0140784870BAF1000F11D025B149
:10217C00002140F23C50AFF300809AF80000A042DE
:10218C0007D125B1002140F23F50AFF300808AF80F
:10219C0000B05DB1002140F24450AFF3008000E08C
:1021AC0025B1002140F6E330AFF300801848002839
:1021BC0018BFAFF30080EFF3108472B696F82B00C3
:1021CC0038B1002D1CBF002140F6E9303FF451AF6F
:1021DC0088E786F82E90012086F82B0054B1002D4C
:1021EC0008BFBDE8F09F002140F6F630AFF3008049
:1021FC00BDE8F09F0548002818BFAFF3008062B619
:10220C00EDE70000CC0C00200000000000000000F6
:10221C000000000070B50D46064601F0A9F90F4804
:10222C0090F82E200024803800EB821010F8141047
:10223C0029B1611CCCB2202CF8D3202070BD0848E9
:10224C0004EB440140F8316000EBC10021464560CD
:10225C000120FEF755FF204670BD0000CC0C00207D
:10226C004C0900202DE9F04F83B000F021FB05460E
:10227C0000F0D4FD634CA068B0F1FF3F1CBF4FF0E1
:10228C00FF30A060A07FDFF880B1A8B9D4E90301CA
:10229C00081A0002C11700EB116000124FF40C7108
:1022AC0009F046F921690844281A0002C11700EB0D
:1022BC0011600012C00F0BD0607EE8B100F004FC7E
:1022CC0094F82A00F0B140F25441702001F0C6F9A4
:1022DC0094F82F0094F82F1000EB40000BEBC0008B
:1022EC00406801EB41015BF831200821904740F236
:1022FC004341702001F0B2F9E81C20F07F4000F05F
:10230C00DDFADDE74FF0010A84F82AA094F82F00DB
:10231C00202824D094F82F80202084F82F0084F8D3
:10232C003000002684F8286084F82960374826603D
:10233C000078022816BF032801200020207794F88B
:10234C002E7004EB870999F82000202831D000EB7F
:10235C0040000BEBC000817D012905D029E040F243
:10236C005741702001F07AF9AB4600F10805408A1C
:10237C0001AA694600F046F994F82F00202804D0F1
:10238C002069401D20F07F400BE068890BF1090BA0
:10239C0028B101F0FFF8002808BF0BF1320B2BF02D
:1023AC007F40D5E90021891A2860084420F07F403D
:1023BC00686039460120FEF7D3FE0028F9D0144896
:1023CC0000EB871010F81800022804D13A46414659
:1023DC000620FEF795FE84F82BA099F82100202802
:1023EC0003D00C48407801F009FA207F002804BF84
:1023FC0003B0BDE8F08F00F05BFD2677667703B085
:10240C00BDE8F08FCC0C00204C09002012000020FD
:10241C004C0C00201000002010B5304C82B094F809
:10242C002F10202908D0A168B1F1FF3F09D040F648
:10243C00E821702001F012F940F6E721702001F03C
:10244C000DF962680146264B50189A4204D940F2A5
:10245C001661702001F002F9224A914204DD40F22B
:10246C001761702001F0FAF81F4A914204DA4FF418
:10247C00C361702001F0F2F81C498142DCBF00F509
:10248C00F700A0F1F85005DD0028BCBFA0F5F7005F
:10249C0000F1F85001AA694600F0B4F89DF8040068
:1024AC000F288CBF012000200099084420F07F41A8
:1024BC00A16094F82900002804BF02B010BD0123CC
:1024CC000322052000F07AFB00281CBF02B010BDCF
:1024DC004FF42F61702001F0C1F80000CC0C0020EB
:1024EC00FF7F841E0020A10700E05EF80080841EA0
:1024FC0070B51E4C202184F8201084F8211084F82B
:10250C002210002084F8230084F82E0084F82F1069
:10251C00421EA2602060A07784F8280084F829006D
:10252C002077607784F83010114984F82C0084F8F7
:10253C002D00087048704880A4F182011022887028
:10254C0001F8040F521EFAD10A4D012684F82A60B4
:10255C00FF202870084801F033F9687001F08EF9FB
:10256C00A86000F0D3FC84F8316070BDCC0C002066
:10257C001200002010000020C90F000070B50446A6
:10258C001546084608F09CFF0F4A011B02F1010C8E
:10259C00B1EB9C0F24BF231AB3EB9C0F0BD38A42D5
:1025AC0003D2111B0844411C05E09A4207D2101AB1
:1025BC002044401C414201F10F00281A70BD40F626
:1025CC000B31702001F04AF8FF7F841E410B48F25A
:1025DC00376251430A0C094B510202FB03020848B3
:1025EC00504300F586306E30400D5B4210FB03F318
:1025FC00B2EB532F88BF491C08447047F7C2FFFF4A
:10260C006F0C0100430B48F2376C03FB0CF330B436
:10261C001B0CDFF844C05C0203FB0C030F4858434F
:10262C004FEA505C04EB0C0043F609541CFB04F419
:10263C0004F5807C43F60855A3EB5C2C2C440CF081
:10264C00FF0CB3EB542F84BF4FF0000C401C086000
:10265C0082F800C030BC7047F7C2FFFF6F0C01005E
:10266C002DE9F041384CD4F80403DFF8E08010F485
:10267C00803F4FF400664FF0E0274FF000051CBF81
:10268C00D4F84001002817D0C4F84051C7F8806234
:10269C002F480068D8F80010A0EB010020F07F4014
:1026AC00022802D3B0F5800F06D34FF48030C4F863
:1026BC0008030420FEF768FFD4F8040310F4003F6D
:1026CC001CBFD4F84401002817D0C4F84451C7F8F3
:1026DC00806220480068D8F80010A0EB010020F0C0
:1026EC007F40022802D3B0F5800F06D34FF40030A0
:1026FC00C4F808030520FEF747FFD4F8040310F4D0
:10270C00802F1ABFD4F848010028BDE8F081C4F826
:10271C004851C7F8806210480068D8F80010A0EB48
:10272C00010020F07F40022804D3B0F5800F38BFA1
:10273C00BDE8F0814FF48020C4F80803BDE8F041F7
:10274C000620FEF721BF000000B0004004B5004099
:10275C0040B5004044B5004048B500402DE9F0417B
:10276C003A4D287804286CD0E81C0122017859B124
:10277C00012908BF6A7002D0697800295CD0022157
:10278C000170407800F0E2FA314CD4F804034FF0B9
:10279C00000810F4002F4FF480764FF0E0271CBF98
:1027AC00D4F84C01002808D04FF0030000F0CEFA0A
:1027BC00C7F880620320FEF7E7FED4F8040310F498
:1027CC00802F1CBFD4F84801002808D04FF002001D
:1027DC0000F0BCFAC7F880620220FEF7D5FED4F8F0
:1027EC00040310F4003F1CBFD4F84401002808D0A7
:1027FC004FF0010000F0AAFAC7F880620120FEF742
:10280C00C3FED4F8040310F4803F1ABFD4F840017F
:10281C000028BDE8F0814FF0000000F097FAC7F8EF
:10282C00806204202870C5F80880C4F80082BDE8D6
:10283C00F0410020FEF7A8BE40F266316C2000F09B
:10284C000DFFBDE8F0410720FEF79EBE1C000020E6
:10285C0000800040012213024FF0E0210020C1F85B
:10286C00803101F5C071BFF34F8FBFF36F8FC1F88B
:10287C0000310C494A60431EC1F808330A4B1860FA
:10288C00C1F840011B1D1860C1F844011B1D1860E4
:10289C00C1F848011B1D1860C1F84C010A610349BD
:1028AC004870704700800040408500401C000020AC
:1028BC00014800687047000004B500402DE9F05F46
:1028CC00414E0446F71E96F800C0F868BCF1010FA3
:1028DC0004BFA042BDE8F09F4FF040413B4A11605D
:1028EC003B496FF48023C1F808333A4A4FF0000596
:1028FC00BCF1000F57D06FF4A023C1F8483315601A
:10290C00C1F84451D1F848214FF0E0294FF00108AB
:10291C00002A04BF4FF40062C9F880224FF48033C0
:10292C00C1F80833C1F84833C1F840512A4AD2F8EB
:10293C0000A0A4EB0A0A2AF07F4BBBF1020F3CD398
:10294C004FF0020ABBF5800F37D2C1F84045C1F8F1
:10295C004433BCF1000F05D01168411A21F07F41BE
:10296C000229F9D3C7F808803D70FFF773FF1B48A5
:10297C000560001DC0F800A0194904200860194921
:10298C00C1F80C80BA68C1F800228101C9F8801224
:10299C00C9F80011144A41071160FC60707086F888
:1029AC000080BDE8F09FC1F84833104B1D60C1F8A2
:1029BC0040511560C1F84451A4E7C1F8405540F2AC
:1029CC00EF116C2000F04AFE1F00002008F50140BA
:1029DC0000B0004044B5004004B500400485004000
:1029EC00108500400080004004F5014040B50040D7
:1029FC002DE9F0412B4CE168814214BF01220022E9
:102A0C00DFF8A4C09CF80070022F02D0002A38D046
:102A1C0003E0002A08BFBDE8F081627882B3234B43
:102A2C004FF080421A60224B9513C3F80853C3F839
:102A3C0048530026C3F840611E4AD2F80080A0EB30
:102A4C00080828F07F48B8F1020F24D3B8F5800F9E
:102A5C0021D2C3F84005C3F844532FB11368CB1AE5
:102A6C0023F07F43022BF9D3134B02214A071A6040
:102A7C00E06004208CF801008CF80010BDE8F081B7
:102A8C0004E040F2FD116C2000F0E8FD40F2012161
:102A9C006C2000F0E3FDC3F8406540F20D216C2082
:102AAC0000F0DCFD1C0000201F00002008F5014098
:102ABC0000B0004004B5004004F501400148C06876
:102ACC00704700001C0000202DE9F04133486FF4E2
:102ADC008024C0F80843DFF8C8C0324A00219CF8B3
:102AEC00003063B16FF4A024C0F848431160C0F803
:102AFC00441100BFD0F84801012280B909E0C0F8A8
:102B0C004843294C2160C0F840111160C0F84411B1
:102B1C00F0E74FF0E0244FF40060C4F88002022B81
:102B2C0004D040F219216C2000F098FD1F4E306843
:102B3C001F4CC01C20F07F40E3681E4D98420BD008
:102B4C003768DF1B27F07F47042F05D3B7F5800FBD
:102B5C0002D2FFF7B3FE1BE03068181A20F07F405A
:102B6C00022813D3B0F5800F10D2134B4FF08040D6
:102B7C001860A26021706A60EA604000191F08604A
:102B8C0004208CF801008CF8002001E0A260217078
:102B9C00A068C5F80002BDE8F081000000B000405C
:102BAC001F00002044B5004040B5004004B5004073
:102BBC001C0000200080004008F501402DE9F04782
:102BCC00DFF874C101274FF000089CF800509CF806
:102BDC0001C007287ED2DFE800F0040404046A6A0E
:102BEC006A00564CE668B6F1807F04BF6478002C0E
:102BFC0002D0022D05D03CE04FF413716C2000F094
:102C0C002DFD4FEA8C0404F18046ACF1040424063B
:102C1C00A40D04F1804906F5004609F5304900245D
:102C2C00012D02D0022D11D020E0BCF1040F05D2F1
:102C3C00D6F840A1BAF1000F18D104E0D9F840A1A0
:102C4C00BAF1000F12D14FF000440FE0BCF1040FA9
:102C5C0005D2D6F840A1BAF1000F07D104E0D9F89B
:102C6C0040A1BAF1000F01D144F0804414F0804F20
:102C7C00D5D1334C00F1100C07FA0CFCC4F808C386
:102C8C008000204452B10764D0F840658D1B25F0BC
:102C9C007F45AA4298BFB5F5800F43D2C0F84015C6
:102CAC00012B08BFC4F804C30120BDE8F08735B17F
:102CBC00844504D140F26F216C2000F0CFFC001F42
:102CCC00C0B2012B0CBF01240024032806D340F210
:102CDC00491100E02BE06C2000F0C0FCDFF864C070
:102CEC0000F1100307FA03F3CCF80833CCF848339F
:102CFC0080006044C0F840814AB1134D2E688D1B92
:102D0C0025F07F45AA4298BFB5F5800F0AD2C0F8CE
:102D1C004015002C18BFCCF80433CCF844330120F8
:102D2C00BDE8F087C0F840850020BDE8F0874FF47F
:102D3C001D716C2000F092FC1F0000201C00002074
:102D4C000080004000B0004004B50040F8B50127F9
:102D5C00002407284CD2DFE800F004040404161603
:102D6C001600264A00F1100107FA01F1C2F8081307
:102D7C0081001144C1F84045C1F84041204951F847
:102D8C0020000090F8BD1F4D011FCEB2297879B1FB
:102D9C006A7882420CD11C4A4FF0404010600129E5
:102DAC0008BFFFF757FD2C7018494FF08070C860B2
:102DBC0006F1100007FA00F11548C0F80813C0F826
:102DCC004813B00000F1804000F53040D0F84015B9
:102DDC00104A1268891A21F07F41022924BFC0F8D9
:102DEC004045C0F840410C4850F826000090F8BD12
:102DFC0040F2ED216C2000F031FC0000008000401E
:102E0C00408100401F00002008F501401C000020FC
:102E1C0000B0004004B5004040B100401E496FF4C2
:102E2C008023C1F808331D481D4A90F800C00020CB
:102E3C00BCF1000F0AD06FF4A023C1F84833106026
:102E4C00C1F84401D1F8481181B909E0C1F84833FF
:102E5C00144B1860C1F840011060C1F84401F1E74F
:102E6C004FF0E0224FF40061C2F880120E494FF08F
:102E7C00FF32C1F808230D4A1060C1F84001121D41
:102E8C001060C1F84401121D1060C1F84801121DF8
:102E9C001060C1F84C01704700B000401F000020CA
:102EAC0044B5004040B500400080004040850040E3
:102EBC00084890F902000028B8BF704700F01F01C5
:102ECC00012202FA01F14009800000F1E020C0F873
:102EDC00001270471C00002010B507280DD2DFE847
:102EEC0000F00404040406060600064902E0001F74
:102EFC000549C0B201EB800010BD4FF426716C2067
:102F0C0000F0ACFB4081004040B1004070B5194866
:102F1C00002404210470C01E01708905C160FFF7F4
:102F2C0099FC01254FF0E02CEB02CCF88031BFF37B
:102F3C004F8FBFF36F8FCCF880320F4A556095607E
:102F4C000E4801680029FCD1481EC2F80803C2F8DB
:102F5C0048030B480460C2F84041001D0460C2F8ED
:102F6C004441001D0460C2F84841CCF800311560A2
:102F7C0070BD00001F00002000B0004004B50040F0
:102F8C0040B500402DE9F041164C607A002827D05E
:102F9C004FF480718D05284608F0EEFA80464FF408
:102FAC008271284608F0E8FA00260746B8F1000FAF
:102FBC0009D00120C5F80803207920B12671E069F9
:102FCC0008B18047E66137B1C5F804610220C5F845
:102FDC00080300F08BFA4046BDE8F04100F05AB807
:102FEC00BDE8F0812C00002010B508F06FFB30B963
:102FFC0008F08DFB18B908F0C0FB002802D002497C
:10300C000220086010BD0000340C004070B500F0C8
:10301C0087F900F0BFFA094C4FF0804530B1FFF74B
:10302C00E3FF012028610420A07204E00320A072B9
:10303C000120C5F804030020E07170BD2C000020B5
:10304C0070B5134CA079F0B1012803D0E179401E82
:10305C00814218DA00F09EFA054600F06FFBA17968
:10306C00012902D9E179491CE1710DB1616900E0D6
:10307C002169411A022902DA11F1020F07DC0DB1A4
:10308C00606100E02061BDE87040FFF7BFBF70BD1C
:10309C002C0000202DE9F04706464FF080454FF4F8
:1030AC008671284608F068FA80464FF488712846E5
:1030BC0008F062FA274C8246277804F1080008F0E1
:1030CC00CFFA10B14FF4D57116E04FF0010946B1AB
:1030DC00A07A032805D10420A072FFF785FFC5F85C
:1030EC0010900026B8F1000F18D0C5F80C61A07A2A
:1030FC00042804D04FF4DE716D2000F0AFFA08F014
:10310C00E5FA28B908F003FB10B908F036FB08B152
:10311C00114806600220A07200F0E6F8BAF1000F28
:10312C0008D0C5F81061A07A022801D1FFF788FFFA
:10313C00C5F814903FB12670A07A022801D1FFF790
:10314C0065FF00F0D1F8BDE8F0470248083008F000
:10315C009EBA00002C000020340C00402DE9F047F2
:10316C005C4C4FF000080646C4F81880437882780F
:10317C000078E07263710127A271BD0784F80780A3
:10318C00052824D2DFE800F00F03051F2100A761FA
:10319C0009E000F0C5F80121284608F0F2F90028F2
:1031AC00F9D00220A06108F018FAB0B100F00CFAC6
:1031BC00217E01F0030188420FD1B07950B1022079
:1031CC00C5F804036AE04448ECE74448EAE74FF4E6
:1031DC004C7149E000F0CCF960E0EF604FF4827A7A
:1031EC00C5F80481A069C5F8180508F05BFA40B968
:1031FC0008F062FA28B908F076FA10B908F087FAE4
:10320C0038B14FF080513648D1F84412C1F34231F5
:10321C00016008F047FA40B908F04EFA28B908F0F6
:10322C0062FA10B908F073FA10B12D48103007602B
:10323C00AF600220C5F80403B07978BBD5F804035D
:10324C0010F0020F0ED0DFF89C90D9F80010C94393
:10325C0041F30017D9F8001041F01001C9F8001023
:10326C007F1C07E040F2F1216D2000F0F7F900BF60
:10327C0000F01AFB5146284608F07EF90028F7D0DA
:10328C0000F076F92FB9D9F8001021F01001C9F827
:10329C0000100220C5F80803C5F80481A07970B1AC
:1032AC00307860B900F076F9064600F047FA6FF016
:1032BC00004216B1C4E9042001E0C4E90402012172
:1032CC00284608F05EF908B100F05EF984F80A802F
:1032DC00BDE8F0872C000020010002000100030073
:1032EC003C05004010ED00E010B5EFF3108472B611
:1032FC000A48417829B14178491E4170417829B179
:10330C0008E040F20D116D2000F0A8F9807808B9A2
:10331C0000F04EF9002C00D162B610BD2C0000203C
:10332C0010B5EFF3108472B606484178491C417011
:10333C004078012801D108F03BF9002C00D162B68D
:10334C0010BD00002C000020054810B5C17821B13B
:10335C0000210171C170FFF7C7FF002010BD0000F4
:10336C002C00002070B50C4CE17861B90125E5709A
:10337C00E061FFF7D5FF00F00DF930B1E06910B155
:10338C0080470020E061002070BD4FF08040257127
:10339C00C0F80453F7E700002C000020EFF3108076
:1033AC0072B604498A78521C8A70002800D162B621
:1033BC00704700002C00002010B5EFF3108472B69B
:1033CC000A48817829B18178491E8170417829B1E8
:1033DC0008E040F225116D2000F040F9807808B922
:1033EC0000F0E6F8002C00D162B610BD2C000020D5
:1033FC002DE9F04104006FF015003CD02178042930
:10340C0039D80029617838D0002934D1A178002925
:10341C0031D1002008F07BF8002008F06BF84FF059
:10342C0080484FF0FF31C8F808130026C8F8006137
:10343C00C8F80461C8F80C61C8F81061144F7E70AC
:10344C00A088B88108F0ABF8012508B1FD707D703B
:10345C000121404608F095F808B100F095F8204697
:10346C00FFF77CFE7D72002008F044F84FF0E0215D
:10347C003046C1F80051BDE8F0810029FBD020296D
:10348C00F9D8A1782129F6D80129C2D1F3E7000097
:10349C002C00002001488089704700002C0000207F
:1034AC0010B50D4808F0DCF80B49083948B101207B
:1034BC0008704FF0E021C1F80002BDE81040FFF7A2
:1034CC002FBF887A022801D1FFF7A0FDBDE810407C
:1034DC00014808F0DCB80000340000200248807A73
:1034EC00002800D0012070472C000020F8B51F4D9B
:1034FC00E87A00280FD1287E00F0030008F05DF870
:10350C00002808D0EFF3108172B6FFF7E7FF18B16F
:10351C00002900D162B6F8BD0126AE7201B962B6BF
:10352C0018204FF08044C4F80803A6614FF42070B3
:10353C00ADF80000BDF80000411EADF80010F9D246
:10354C000027C4F80C71C4F810710848083008F052
:10355C009AF82F70FFF75AFD6661687900F07F00CA
:10356C00C4F838051820C4F80403F8BD2C0000205A
:10357C0010B5044C207E00F0030008F01EF8002863
:10358C00F8D010BD2C0000200149012008707047B4
:10359C00980200204FF08040D0F8000118B9034881
:1035AC000078002800D0012070470000980200200D
:1035BC004FF08040012141600021C0F8001101480A
:1035CC0001707047980200200248006800F0030068
:1035DC00704700001C04004010B531B1012907D020
:1035EC004FF4427105A000F00FF8D0F8140401E07C
:1035FC00D0F8080400F0010010BD00006E72665F88
:10360C00636C6F636B2E6800024A526802B11047FC
:10361C00FEE700004C000020064810B500210160B8
:10362C0001210160084607F0EFFFBDE810400120C2
:10363C0007F0DDBFFC1F0040074810B501214160B9
:10364C00891EC0F808130C2007F0DEFFBDE81040FF
:10365C000C2007F0CCBF000000C00040FEB5104AA3
:10366C005568E5B1002203466E460A2403E0B0FB20
:10367C00F4F0521CD2B20028F9D1B0540AE000BFC9
:10368C00B3FBF4F004FB1030B3FBF4F3521ED2B2D4
:10369C003030B054002AF3D13046A847FEBDFEE7C7
:1036AC004C00002070B5174C06460D46607810B1E2
:1036BC004FF0FF3070BD06B9134E62602570FFF7F6
:1036CC00ABFFFFF7B9FF3046FFF792FE0600F1D1D2
:1036DC00FEF70EFFFFF70AFF07F0D8FE284607F0AB
:1036EC0086FF0120002D09DB05F01F0100FA01F116
:1036FC006A09920002F1E022C2F8001160703046B3
:10370C0070BD00004C00002036B600000148407827
:10371C00704700004C000020074890F9000000287A
:10372C0009DB00F01F02012191404009800000F1EB
:10373C00E020C0F8001270474C0000202DE9F04149
:10374C0001264FF0E02231034FF000084046C2F84A
:10375C008011BFF34F8FBFF36F8F164CC4F800016D
:10376C000C2007F070FF144D2868C04340F300177D
:10377C00286840F010002860C4F8046326607F1CA1
:10378C0002E000BF00F090F8D4F800010028F9D056
:10379C001FB9286820F0100028600848056866608A
:1037AC00C4F80863C4F800810C2007F04CFF2846CD
:1037BC00BDE8F08100C0004010ED00E008C50040FD
:1037CC0010B5024605200C4904E000BF01EBC00314
:1037DC001B7933B1401EC0B2F8D24B216920FFF7E0
:1037EC003DFF41F8302001EBC00100224A718A7183
:1037FC0001220A7110BD0000000D002010B5052833
:10380C0001D35A2106E00A4901EBC00001790129D4
:10381C0003D05B216920FFF721FF41798279491C94
:10382C00C9B28A4200D04171BDE81040FFF774BFA5
:10383C00000D002070B505250E4E0F4C16E02178BA
:10384C0006EBC1000279012A08D1427983799A42A8
:10385C0004D04279827156F8310080472078401CA0
:10386C00C0B22070052801D3002020706D1EEDB26F
:10387C00E5D270BD000D00209902002000B507F0C4
:10388C0011FF40B907F018FF28B907F02CFF10B949
:10389C0007F03DFF08B1024800BD024800BD000022
:1038AC000C05004000E7014010B507F030FF30B3C5
:1038BC00EFF31080C8B1002172B612480268036899
:1038CC00C2F3001243F0100303604FF0E023D3F86F
:1038DC000042D3F804321C4300D040BF20BF00BFCD
:1038EC0000BF00BF00BF12B105E00121E4E7026890
:1038FC0022F010020260002900D062B610BD20BF79
:10390C0010BD000010ED00E08BB90000A7B900005D
:10391C0095B90000A1B900008FB9000089B9000069
:10392C0087B90000ADB900009BB9000081B9000057
:10393C0079B900007DB9000073B900000148006836
:10394C0000680047540000200148006800690047E7
:10395C0054000020014A126892681047540000205D
:10396C0001480068C068004754000020014A1268F2
:10397C00526810475400002001490968096A084739
:10398C005400002001480078704700009A02002083
:10399C001FB5174CA079022800D202208DF8010027
:1039AC006079032800D203208DF800002079ADF84F
:1039BC000400E078ADF80200684606F0FBF808B1A8
:1039CC00AE2110E0A068029002A806F009F908B137
:1039DC00B22108E007480068039003A80AF0F4FE3F
:1039EC00002803D0B621032000F0CEF81FBD000044
:1039FC00640000207C3C000010B528B1142204495E
:103A0C0007F0D7FE002010BD6FF0150010BD0000B0
:103A1C00AE3C000070B56FF02C05B0BB1D4CA0780F
:103A2C0008B1A81170BD21B36FF01500002AF9D0B0
:103A3C0008292AD2DFE801F02904070A0E11141E06
:103A4C001078207318E01078607315E01068C4F8D3
:103A5C000F0011E0106860610EE01078A0730BE0AD
:103A6C00217911B111780229DCD30A4910780C3173
:103A7C00087301E010886083064901220C31002094
:103A8C0007F090FFB0F5803F01DB284670BD0121A7
:103A9C00E17070BD5800002038B50D46040020D0F0
:103AAC00FDB100F033F9F8B12046FFF789FE104C58
:103ABC00002204F10C012070284607F073FF0BF074
:103ACC0072FA0021207806F0E3FA60788DF8000095
:103ADC0068460AF06DFEFFF75BFF0120A070002026
:103AEC0038BD6FF0150038BD4FF0FF3038BD000009
:103AFC005800002070B505000BD0FFF707FE4FF003
:103B0C00FF3420B1FFF7C6FCB0F5FA7F04D920468C
:103B1C0070BD6FF0150070BD0022164B114600BF32
:103B2C0033F82140844203D303EB8100827803E015
:103B3C00491CC9B20C29F3D30F4C10486270A56014
:103B4C0000F0F6F90020A070E0702071EFF3108403
:103B5C0072B60B486FF00C0100F06CFD094800F0D8
:103B6C002DFE18B1C421032000F00EF804B962B682
:103B7C00002070BD7E3C0000580000209D390000E4
:103B8C0000C00040453D00000EB572B6154A956860
:103B9C00D5B1002203466E460A2403E0B0FBF4F0D4
:103BAC00521CD2B20028F9D1B05409E0B3FBF4F0A6
:103BBC0004FB1030B3FBF4F3521ED2B23030B054CD
:103BCC00002AF3D13046A847BFF34F8F064801684F
:103BDC00064A01F4E06111430160BFF34F8F00BF4F
:103BEC00FDE70000580000200CED00E00400FA0591
:103BFC00064810B5C1788078014302D04FF0FF30F1
:103C0C0010BD06F065FA002010BD00005800002021
:103C1C00064810B5C1788078014302D04FF0FF30D0
:103C2C0010BD05F0F5FF002010BD0000580000206D
:103C3C00064810B5C1788078014302D04FF0FF30B0
:103C4C0010BD0AF026FF002010BD00005800002017
:103C5C00064810B5C1788078014302D04FF0FF3090
:103C6C0010BD06F047FA002010BD000058000020DF
:103C7C00010001000B0002000A00050009000A0007
:103C8C000800140007001E000600320005004B005F
:103C9C0004006400030096000200FA000100F40125
:103CAC0000003F47708E81954E869DD3A29588F675
:103CBC00300A7F5349FD0000054A10B5526812B115
:103CCC00BDE81040104783210420FFF75DFF000082
:103CDC00280D0020054A10B5126812B1BDE810403D
:103CEC0010477D210420FFF74FFF0000280D002016
:103CFC00054A10B5926812B1BDE8104010478921F1
:103D0C000420FFF741FF0000280D00200548016842
:103D1C0029B1416819B1806808B1012070470020B1
:103D2C0070470000280D002002490DC881E80D00E5
:103D3C0000207047280D0020F8B5124C002625688D
:103D4C0011E00098022802D003280CD106E020686C
:103D5C0010B10020266005E028210CE0206868B135
:103D6C0001202660A847684600F0FAFC0028E8D03D
:103D7C00052805D035210420FFF706FF2D21FAE791
:103D8C00F8BD0000740000207CB5214C054620785D
:103D9C0040B1A278611C2846921C07F00AFD002055
:103DAC00207025E01A48443805F068FF002820D020
:103DBC00174C443C2078112804D10A213E2007F0EE
:103DCC0071FE18B12078082806D00AE01049284660
:103DDC00443908F070F80BE005213E2007F062FE34
:103DEC0040B10B492846443907F0BAFE002800D0F0
:103DFC0001207CBDA088ADF8000001A9684608F040
:103E0C0074F90028F5D098210820FFF7BDFE0000BA
:103E1C00080E002070B50A7882703AB3012A25D8B2
:103E2C001323037000230AE001EB430400EB43056A
:103E3C00A678EE706488240A5B1C2C71DBB293426A
:103E4C00F2D300230BE000BF01EB430500EB43046E
:103E5C002E796671AD882D0A5B1CA571DBB293427D
:103E6C00F2D3012101EB8200C0B270BD002070BD05
:103E7C0001210C4A40280CD2202803D8401E814036
:103E8C00106802E0213881405068014207D10020BF
:103E9C007047FF2803D0403881409068F5E7012037
:103EAC0070470000780000200121401E814004482A
:103EBC00C068014201D0012070470020704700000B
:103ECC007800002001490068C86070477800002025
:103EDC0004490268406842F48C220A60024A10438A
:103EEC004860704778000020F807400201490068DC
:103EFC00886070477800002005484FF0FF31016062
:103F0C00C90C4160002181601F21C1607047000015
:103F1C007800002010B5FFF7EFFF0AF02FFD0446E4
:103F2C000248006800B18047204610BD8800002080
:103F3C0001490860704700008800002002210180C0
:103F4C004180002101713F21417147F24701C1803D
:103F5C0001498160002070478E81954E3EB5044624
:103F6C00694608F028FC70B140F2122108E000BF4D
:103F7C00BDF80400214600F0A9F820B140F2172149
:103F8C001720FFF701FE684600F050F80028EFD02C
:103F9C003EBD000010B5022804D340F26B1117206F
:103FAC00FFF7F2FD0149085C10BD0000340D002044
:103FBC00F8B505460090914201D2144600E00C463B
:103FCC0055B10027E81C20F00300A84206D040F2AF
:103FDC003F111720FFF7D8FD0127F3E7124E684673
:103FEC0031707270394600F0EDF8002003460099EC
:103FFC00C91C21F00301009167B906EB8002D16066
:10400C00002105E0D2F80CC04CF82130491CC9B293
:10401C00A142F7D30099401C01EB8401C0B200917E
:10402C000228E4D3481BF8BD340D002070B50446BB
:10403C0008F02BFC08B1102070BD257800F0FEF8BC
:10404C0002460C48618800EB85000EE0C36853F80B
:10405C00213043B14A1C6280A180C06850F8210015
:10406C00A060002070BD491C89B29142EED36180E2
:10407C00052070BD340D00202DE9F04121B101293E
:10408C0002D00020BDE8F0810F4C00273B464FF6D4
:10409C00FF7604EB810514F801C00AE0DC19D5F8B1
:1040AC000CE0A4B25EF824E0BEF1000F04D05B1C5F
:1040BC009BB29C45F2D8344604802046B442E0D0F2
:1040CC00BDE8F04100F034B8340D00202DE9F0418A
:1040DC000646A0F57F400C4643F20207FF3820D07D
:1040EC00022C02D30720BDE8F081304600F05AF8CC
:1040FC00050016D00C48294650F82420304690472D
:10410C000A48002100EB8407F86840F82610204686
:10411C0000F08AF802462946786808F019FB00205E
:10412C00E1E73846DFE7000068420000340D00206C
:10413C002DE9F04190460D46074608F04DFB48B17D
:10414C00164800EB8506F06850F8270028B140F2BD
:10415C00091115E04FF4847112E0706800281AD030
:10416C00284600F061F80146706808F0A3FA0400D4
:10417C0010D0F068022D40F8274004D34FF48A7118
:10418C001720FFF701FD06484246214650F825301E
:10419C00384698472046BDE8F0810000340D0020D9
:1041AC006042000070B50C46054608F015FB00286F
:1041BC0005D0034800EB8400C06850F8250070BDA2
:1041CC00340D00202DE9F843164E88460546002490
:1041DC002868C01C20F003002860204600F024F85A
:1041EC00315D4843B8F1000F01D0002200E02A688D
:1041FC000146009232B100274FEA0D0008F087FA11
:10420C001FB106E001270020F8E706EB8401009AB5
:10421C004A602968641C0844E4B22860022CD7D395
:10422C00BDE8F883340D0020034931F810004FF637
:10423C00FC71C01C084070475C42000003480178C8
:10424C004078814200D3084670470000340D0020AE
:10425C001002E800F9C70000F9C70000D5DF000024
:10426C0077D500002DE9FF4F264C804681B02068A1
:10427C009A46934658B1027A424503D9416851F89F
:10428C00280040B143F2020005B0BDE8F08FA52133
:10429C001820FFF779FC1946029808F0BFFA86B28D
:1042AC0058460E9908F0B1FA85B27019001D87B204
:1042BC002068A1463946006808F0FCF904001FD0BC
:1042CC00678025802946201D0E9D07465A460123EE
:1042DC00009508F04EF92088314638440123029AA3
:1042EC00CDF800A008F045F92088C119384608F02F
:1042FC0071F9D9F800004168002041F82840C3E763
:10430C000420C1E78C00002070B5144C23688BB1DD
:10431C00197A814212D95A6852F8201071B10025CD
:10432C0042F820504A88186808F012FA21680020D8
:10433C000A7A0CE0C8211820FFF726FC43F2020091
:10434C0070BD4B6853F8203033B9401CC0B2824268
:10435C00F7D8086808F0F1F9002070BD8C00002037
:10436C002DE9F0410D46040090464FF0000609D0AF
:10437C000027E01C20F00300A04205D08621182065
:10438C00FFF702FC0127F4E7CDB11146002008F03D
:10439C00BEF90C3000EB85068FB90A4F04F10C0006
:1043AC00AA003C602572606000EB85002060002153
:1043BC00606807F078FA4146386808F0A8F930468A
:1043CC00BDE8F0818C00002070B5084D28680028ED
:1043DC000AD0002404E02046FFF796FF641CE4B2E8
:1043EC002868007AA042F6D870BD00008C0000202E
:1043FC00094910B502460968002049B10B7A93426D
:10440C0005D9496851F82210002900D0081D10BDAB
:10441C00EE211820FFF7B8FB8C0000200A4910B5DC
:10442C0002460968002059B10B7A934207D94968B2
:10443C0051F82210002902D031F8040B084410BDA9
:10444C00FC211820FFF7A0FB8C00002070B506465D
:10445C0009480D4600880AB1440800E0840821464A
:10446C00286808F027F900212A7964F31F41521CAF
:10447C002A71C6E9000170BD900000202DE9F84FAB
:10448C00884605000AD00027E91C002021F0030112
:10449C00A94205D02E210920FFF776FB0127F3E76F
:1044AC001D4900EBC80607B94D601F2A04D84FF60A
:1044BC00FF7000EA820007E07C20B0EB420F01D2D3
:1044CC00500000E07C2080B24FF6FC72C01C104003
:1044DC0000240880A246894616E0A81900900FB166
:1044EC00002000E06846B9F8001008F010F947B950
:1044FC00D9F8041001EBC40383F804A0009A41F826
:10450C003420641C0644E4B24445E6D3F61D26F080
:10451C000700BDE8F88F000090000020064910B598
:10452C004A6802EBC004002020710988204608F07C
:10453C00EEF8204610BD000090000020094910B58F
:10454C0007480860084B112003EBC0040022C4F894
:10455C001025C4F81425401CC0B21428F4D310BD87
:10456C000000FEFF08F5014000F0014070B520246A
:10457C000021012320FA01F2D20720D04AB2002AEE
:10458C0010DB00BF4FEA52164FEA860602F01F05F9
:10459C0006F1E02603FA05F5C6F88051BFF34F8FFC
:1045AC00BFF36F8F0BDB02F01F054FEA52124FEA7D
:1045BC00820202F1E02203FA05F5C2F8805201F101
:1045CC000101A142D6D370BD70B542004FF000017D
:1045DC0001D5144A1160C0F38032C0F3C0339A4243
:1045EC0003D064211B20FFF7CFFA10F4404F14D0F6
:1045FC000D4A01205060831EC2F808330B4A9060AC
:10460C00C2F80012C2F80833094C2160251D28603D
:10461C009060C2F8083321602860BDE87040FFF755
:10462C008DBF000004E5014000E0004000F00040B8
:10463C0000F5004070B50A4C0D462060FFF7C4FF32
:10464C002068FFF793FF00F077F8FFF777FF08F08B
:10465C0011F9284600F0AAF8BDE8704000F0C2B885
:10466C00980000202DE9FC5F2F4E834630680190A6
:10467C0001272E4806F0F4FFDFF8B08020B90027A0
:10468C0008F1010007F003F8294C00254FF003094D
:10469C0001206060C4F80051C4F80451C6F800B0A1
:1046AC002060DFF890A017E0DAF80000C00613D500
:1046BC000E2008F0D0F8EFF31080009072B6C4F81A
:1046CC000493D4F8000120B9D4F8040108B9FFF719
:1046DC00EBF8009800B962B6D4F8000118B9D4F818
:1046EC0004010028E0D0D4F804010028D0D137B15F
:1046FC000198306008F1010006F0B2FF11E008F1FA
:10470C00010006F0ADFF0028BAD1C4F80893C4F834
:10471C000451C4F800510E2008F09DF8034806F02F
:10472C00B6FF0020BDE8FC9F04E500409B02002082
:10473C0000E0004010ED00E010B5084806F0A3FFC3
:10474C0008B1242106E00548401C06F09CFF002817
:10475C0003D028211D20FFF717FA10BD9B02002063
:10476C0070B511490A68EAB100231D4601244A6854
:10477C00521C4A60092A00D34D600E7904FA06F2E5
:10478C000E6816420BD0EFF3108372B60C6894438C
:10479C000C6003B962B649680160002070BD5B1CF7
:1047AC00092BE4D3052070BD9C0000200248002199
:1047BC0001604160704700009C00002010B5084C5F
:1047CC00617809B10F2010BDFEF7FAFF2070FF28A9
:1047DC0001D0002010BD76211F20FFF7D5F9000075
:1047EC00A40000200149002048707047A40000205C
:1047FC000648074A818C5288914204D190F82200D5
:10480C0008B1002070470120704700000A0F0020FB
:10481C00880200200149488070470000880200206F
:10482C000848094A818C5288914209D14FF6FF7190
:10483C00818410F8221F19B10021017001207047EA
:10484C00002070470A0F002088020020074810F84B
:10485C00221F012907D00121017005480349008856
:10486C008884012070470020704700000A0F002048
:10487C00880200200649074B8A8C5B889A4205D136
:10488C0091F8222012B1016001207047002070477E
:10489C000A0F00208802002009498A8CA2F57F4368
:1048AC00FF3B02D00021016007E091F8222004496F
:1048BC00012A02D0016001207047002070470000DF
:1048CC000A0F002001490880704700008802002070
:1048DC000549002081F822004FF6FF7088840349B7
:1048EC0008804880704700000A0F002088020020D2
:1048FC0005498A8C824205D1002081F822004FF6AE
:10490C00FF708884704700000A0F00200A4A10B11B
:10491C00012807D00EE0507860B1D2F80200086090
:10492C00D08804E0107828B190680860908988805D
:10493C0001207047002070479D020020084A012387
:10494C0038B1012804D11370086890608888908170
:10495C00704753700868C2F802008888D08070478E
:10496C009D020020064910B1012802D005E04878CC
:10497C0000E0087808B10120704700207047000063
:10498C009D02002001494874704700003A0900203C
:10499C000148C07870470000C00000200148007931
:1049AC0070470000C000002078B513494A7C0AB358
:1049BC000A7C8DF80020009A00929DF80020CAB164
:1049CC00002301F110021A24A1F152050E7C8DF87E
:1049DC000060009E00969DF800604EB1137043700D
:1049EC000470D5F85A604660D5F85E608660EDE7D5
:1049FC00012078BD002078BD3A09002010B504468E
:104A0C0000F046F918B1BD212720FFF7BDF8034887
:104A1C00012108F00CFB0248C46210BD18090020EB
:104A2C00C00000200149012088717047C00000209F
:104A3C002DE9F047574D089C2E78002E6ED1002A98
:104A4C006CD0002B6AD0002C68D005F11406C5E997
:104A5C000E0186E81C000027AF716F71EF70AF700C
:104A6C002F71AF81EF8100F04BF9064600F042F94F
:104A7C00044605F0D1FF05F0A9FC94F9660006F098
:104A8C0053F804F1100006F03DF904F10C0006F0A7
:104A9C002DF996F8230006F04FF905F1380040681F
:104AAC0090F86C0108B105F005FF94F86310012033
:104ABC0005F030FE002866D0BA46012005F03AFF1A
:104ACC00354805F0A3FE2088FFF7A8FC2863208852
:104ADC00FFF78EFC06F160016863DFF8C0908EC9A9
:104AEC0009F1080888E88E00316FC9F82110716F40
:104AFC00C9F8251000F076F90146208E08F01AF856
:104B0C00A18D814200D208462872A84694F8631001
:104B1C00E08EF77CA58E082904D102E04FF48A714F
:104B2C0035E0042108F006F80FB9001D80B285426B
:104B3C0000D22846C0B288F80900F27C02B10422E7
:104B4C001044C0B288F80700B4F84C10091D81421B
:104B5C0002D240F2A1111AE05546012000F046FBAA
:104B6C000F480068032810D00B280ED0484640F898
:104B7C00525F45600948B1885230418021880180DC
:104B8C0096F823100171BDE8F08740F2B11127208F
:104B9C00FEF7FAFFC000002024540000E8080020B3
:104BAC00501500402DE9F047054600F0A9F8334EAA
:104BBC000446706A47780DB1012D03D1716B06F074
:104BCC0049FF707070784FF000084FF0010950B138
:104BDC0001281AD0022834D0032848D040F2F131F1
:104BEC002720FEF7D1FF012D32D000F0E7F839462F
:104BFC000122706B07F052FB28E000BF84F808809C
:104C0C0031E000BF84F808902DE0012D08D000F0B1
:104C1C00D5F839460022706B07F040FB022D0BD003
:104C2C00D4E91601401C41F10001C4E91601207AB7
:104C3C00012803D084F80890BDE8F08784F8088038
:104C4C00FAE7012D04D0706B07F02EFD022DF3D086
:104C5C00D4E91601401C41F10001C4E91601207A87
:104C6C000128CFD1CAE7BDE8F04704F0E9BE012D19
:104C7C00E2D0706B07F018FDF5E70000C0000020D3
:104C8C000248C089C0F3802070470000C00000209B
:104C9C000448007808B10C20704703490020487480
:104CAC0070470000C00000203A0900200C4810B5E5
:104CBC00017849B100F138010078022808D040F29F
:104CCC00CD112720FEF760FFBDE8104000F0A6B91B
:104CDC004868D0F80001BDE8104005F09FBD000009
:104CEC00C0000020024A9389034393815269104704
:104CFC00C00000200148406870470000F800002008
:104D0C000148406868307047F8000020014A0021D3
:104D1C0052691047C000002070B5FFF7F1FF044640
:104D2C00FFF7E8FF0546214607F087FFA97F012919
:104D3C0014D1002812D00A4842682888A2F8EE0143
:104D4C00607A82F8F001A07A82F8F10102F5F6722D
:104D5C0001201070BDE8704004F072BE70BD000000
:104D6C00F800002070B50546012918D8124CA1692D
:104D7C008847A0B1607990B9E5B904F110000178C9
:104D8C00C80605D4E06A0078C00601D4012000E012
:104D9C000020A26A2AB962891AB1C90601D401207D
:104DAC0070BDA1898A0703D5226AD278022A01D064
:104DBC000843F4D1002070BDC000002010B5084C91
:104DCC00A06A38B16289616AD21C06F0F2FCA06A52
:104DDC00606210BD4FF487612720FEF7D5FE0000FE
:104DEC00C000002010B5FFF785FF0446FFF788FFD1
:104DFC000146427B1548242A0ED0897B24290BD0EE
:104E0C001F2A0DD0202A0BD022290FD094F8620033
:104E1C00042800D1082010BD406890F88E110EE0D7
:104E2C00222903D0406890F8A80105E0416891F868
:104E3C00A80191F85B10084007F078FD014694F842
:104E4C006200BDE8104007F089BD0000F8000020AA
:104E5C002DE9F84388460646FFF752FF4A4C0027D7
:104E6C0005468DF800702078022804D040F2894164
:104E7C002720FEF789FEA07B400606D44020FFF7D2
:104E8C0045FFE08940F04000E081E87CC6B305F0C6
:104E9C0015FB05F0F9FA68B9E87C58B1606A4178FD
:104EAC0041B10078297AC0F3C000884202D10120B8
:104EBC00A0704AE0606A4178618121B1606B07F0B3
:104ECC00C0FBA06200E0A762E08940F48070E08142
:104EDC00606AE9790078C0F38000884205D000F060
:104EEC0037F9E08940F48060E081606A297A0078C3
:104EFC00C0F3C00088420ED1684600F0E5F80AE025
:104F0C00FFE708B105F0D4FAE078401CE070E089C6
:104F1C0040F40070E0811D4DB8F1000F04D1E17830
:104F2C000120FFF71FFFA0B19DF8000010B1002079
:104F3C00FFF738FE36B1E7706879401C6871FFF7EF
:104F4C00EBFE02E0A879401CA87100F067F8BDE800
:104F5C00F8839DF8000010B10120FFF723FE00201C
:104F6C0000F08EF99DF8000010B10220FFF71AFE38
:104F7C0036B1E7706879401C6871FFF7CDFEE6E743
:104F8C00A879401CA871E2E7C00000203A09002073
:104F9C002DE9F0410E468046FFF7B2FE1E4D044649
:104FAC002878012804D040F247412720FEF7ECFD79
:104FBC006078012730B10020607001460420FFF7B3
:104FCC0091FEE770296A0878C043800709D1A0795F
:104FDC00D0B90220FFF786FE286A0078C04380070C
:104FEC0012D0286A407810B10220A07100E0A7719D
:104FFC0036EA080604D000210846FFF7B3FE28B1B4
:10500C00BDE8F04100F00AB80320EEE7BDE8F0413E
:10501C00002000F0EBB80000C000002010B505F037
:10502C00E5FA05F0D3F90D4CE089FFF76FFEE26964
:10503C006179A07890470A48407C58B108485238AA
:10504C0050F8521F81604168C1600548012101740C
:10505C0004F0F6FC0020207010BD0000C000002001
:10506C003A090020084810B50078022804D040F214
:10507C0001212720FEF788FD04490120C871BDE8F5
:10508C001040FFF7CBBF0000C00000203A09002001
:10509C0030B40C4B42B9DA79FF2A05D190F8632071
:1050AC0090F86240A2420BD031B1DA7990F86310DB
:1050BC0030BC104605F02EBEFF2290F86210F7E7C8
:1050CC0030BC7047C00000202DE9F0410746FFF7C7
:1050DC0017FE04461D4800260125416A0A7802F095
:1050EC000302012A15D0022A13D0032A03D04179D6
:1050FC0041F0040124E06570C28942F40062C2816F
:10510C000120FFF7EFFD1DE02672BDE8F08125724E
:10511C00FBE74978B1B1C28942F40062C281826A6C
:10512C00002AF2D0FB2908D8807920B1BDE8F041E3
:10513C002020FFF7EBBD3D70E7E7417941F010010E
:10514C004171E2E7207A0128E1D1DDE7C0000020BF
:10515C0070B5FFF7D5FD0446807900282ED00228C3
:10516C000DD11C48006B07F072F840B3D4E9140160
:10517C00401C41F10001C4E9140104F061FC00255C
:10518C00A571E07820B1E57000211020FFF7AAFD91
:10519C00A07870B1A570FFF743FB98B100210820EF
:1051AC00FFF7A0FDD4E91401401C41F10001C4E952
:1051BC001401E07901280AD00120E07170BD4FF490
:1051CC00637101E04FF469712720FEF7DDFCE57196
:1051DC0070BD0000C000002003480078002801D0FA
:1051EC00FFF71CBF70470000C00000202DE9F047FE
:1051FC008146FFF77FFD0646FFF782FD1D4C0546F5
:10520C004A46E06A606201213046FFF741FFE87CC4
:10521C004FF00008C0B1677A174805F08BFC1748AF
:10522C0001210176D5E91612C0E90412124A616A0D
:10523C0005F0BCF896F8630007F082FB024639468D
:10524C00012005F0E1F804E0606A05F073FC05F05C
:10525C00BDF8B9F1000F02D1404605F003FB002167
:10526C0096F862300122084605F0EEFC0220207010
:10527C00BDE8F087C0000020E8070020F0080020FF
:10528C002DE9FC470446FFF73BFD0546FFF732FDD1
:10529C000646DFF8789122460021FFF7F9FEA8793F
:1052AC0001274FF00008A9F1200440B101281FD0BC
:1052BC00022830D003283CD040F29E2158E0207ABE
:1052CC004821ADF8040088534846FFF7D3FA28B1BB
:1052DC008020216AFFF706FDAF702EE06A4601A917
:1052EC00206B07F045FB206210B195F8431011B10B
:1052FC004748206221E09DF8001031B9A0F80080E9
:10530C0080F80280012107F092FEBDF80410206A9B
:10531C0007F051FE11E0B6F84800ADF804006A46FB
:10532C0001A9206B07F024FB206230B940F28F21D9
:10533C001EE04846FFF79EFAC0B1206A08230178A8
:10534C0021F008010170EA7903EAC202114321F04D
:10535C00040101702A7A042303EA8202114321F02A
:10536C0010010170C943890705D007E04FF426717D
:10537C002720FEF709FCC07802280FD0206B07F01D
:10538C008BF808B101210AE0206A0078C04380073D
:10539C0004D0FFF72DFA80F0010100E00021206A13
:1053AC00027842EA01110170A97CD1B14178C1B1F6
:1053BC00184805F0BFFB1648283880F81880D5E946
:1053CC001412C0E904121349226A04F0EFFF96F894
:1053DC00620007F0B5FA0246FB21002005F014F834
:1053EC0003E005F0A7FB04F0F1FF012296F863300F
:1053FC001146002005F028FC2771206A01882182C3
:10540C008078A0742770BDE8FC870000E0000020C5
:10541C0018090020E8070020715000005D4E0000C4
:10542C009D4F0000E551000000487047031100201B
:10543C0004498A78824203D9084490F843017047A2
:10544C0000207047300F002004498A78824203D92B
:10545C0001EB00108330704700207047300F0020A4
:10546C00054A01EB410102EB41010268C1F80B2135
:10547C008088A1F80F017047300F00202DE9F04112
:10548C000E46074615460621304607F05FFC0D4CCC
:10549C0060B1002004E02118401C81F83B51C0B2DF
:1054AC00A1788142F7D80120BDE8F0813146384619
:1054BC0007F06DFA082803D0204480F83B51F2E73E
:1054CC000020F1E7300F002004498A78824203D98A
:1054DC0001EB0010C01C704700207047300F0020FB
:1054EC0010B540F2D3120021084806F0DCF908226E
:1054FC00FF21074806F0D7F905480021001F01706D
:10550C0041704FF46171418010BD0000300F0020DC
:10551C009002002001490870704700008C020020A6
:10552C0001480078704700008C0200200B4B10B52E
:10553C009C7884420FD9184490F8030103EBC00007
:10554C0090F853310B70D0F854111160B0F8580129
:10555C009080012010BD002010BD0000300F0020F5
:10556C0007498A78824209D9084490F8030101EB73
:10557C00C00090F85A0100F00100704700207047FD
:10558C00300F00202DE9F047984691460C46054611
:10559C0000F038F90646102806D000F003F9102860
:1055AC0002D01220BDE8F087184FB87808282AD20C
:1055BC00102E05D100222146284600F007F9064698
:1055CC00BC781022601CB87007EB0415E81C494627
:1055DC0007F026FB05F183001022414607F020FB63
:1055EC001021404607F0B2FB3C44102184F84301E3
:1055FC00484604F5967407F0A9FBE07704F8296C8B
:10560C000020E073CEE70720CCE70000300F00202D
:10561C00064810B58078401E44B204E0E0B200F0B9
:10562C0039F9641E64B2002CF8DA10BD300F00207A
:10563C0001484088704700008C02002038B14AF2C3
:10564C00B811884203D803494880012070470020D4
:10565C00704700008C02002005498A78824203D9E9
:10566C00084490F83B0108B10020704701207047B6
:10567C00300F002070B50D46064600F0C3F8104CF4
:10568C00102807D004EBC00191F85A11C90701D0BA
:10569C00012070BD6178082910D2102808D004EBC5
:1056AC00C000012180F85A116078401C6070EFE74F
:1056BC0001222946304600F089F8F5E7002070BD3C
:1056CC00300F002070B50B4D2878401E44B20AE014
:1056DC0005EBC40090F85A01C00702D0E0B200F00C
:1056EC0021F9641E64B2002CF2DA034900204870E0
:1056FC0070BD0000300F00208C0200202DE9F0411D
:10570C0000242546184E29E006EBC50797F85A01E8
:10571C00C00721D0284600F045F80346FFF7D4FE19
:10572C0001460020102B09D0F21892F83BC1BCF1B5
:10573C00010F02D092F84B2102B10120401E014210
:10574C000AD10A4807F5AA7103552046641C97F83C
:10575C005321E4B205F0EAFB6D1CEDB23078A8429F
:10576C00D2D8BDE8F0810000300F0020900200205C
:10577C0070B50A4B1B7873B1094B9C785CB145181A
:10578C0021460AB1D81C01E0054883302A4604F0B2
:10579C002FFD012070BD002070BD00008C02002088
:1057AC00300F0020084910B5034600208A7806E027
:1057BC000C1894F803419C4204D0401CC0B28242A5
:1057CC00F6D8102010BD0000300F002070B50C4B27
:1057DC0004461878451C1D70102803D34621282038
:1057EC00FEF7D2F903EBC0030D68C3F85451898856
:1057FC00A3F8581183F8534183F85A2170BD000067
:10580C00300F00202DE9F0410F46064600240D4DC7
:10581C000FE000BF05EBC40090F85311B14206D164
:10582C000622394600F5AA7005F0B1FF38B1641CA8
:10583C00E4B22878A042EDD81020BDE8F0812046D3
:10584C00FBE70000300F002070B50546FFF7AAFFFC
:10585C0010281CD10E4C2078401EC0B22070A842DB
:10586C0015D004EBC00204EBC50102F58070D2F830
:10587C005321C1F85321D0F85700C1F857012078B3
:10588C00FFF790FF102802D0204480F8035170BD20
:10589C00300F00202DE9F047214C0646A719A078BF
:1058AC00401EC5B2A57097F80381AE422AD004EB16
:1058BC00051A04EB06190AF1030109F10300102281
:1058CC0005F077FF0AF1830109F18300102205F03E
:1058DC0070FF601905EB450290F8031187F803116E
:1058EC0006EB460104EB420204EB4101D2F80B310A
:1058FC00C1F80B31B2F80F21A1F80F2190F83B0140
:10590C0087F83B0104EBC80090F85A01C00704D19A
:10591C004046BDE8F047FFF797BFBDE8F0870000B1
:10592C00300F002005494A78521E4A7001EBC00125
:10593C00002281F85A21FFF787BF0000300F0020AA
:10594C00F0B56FF01F02010C02EA90261F25A1F59D
:10595C00AA4054380DD0A1F5AA40553809D0A1F56C
:10596C002850AA3805D0A1F52A40AA3801D0012028
:10597C0000E00020002213464FEA020482EA0107ED
:10598C00FF431F437F1C0FD006F00107520842EA69
:10599C00C73205F001075B0876086D08641C43EA02
:1059AC00C733162CEAD3F0BD0020F0BD2DE9F0472B
:1059BC00044600F168054FF0010971B104F17E074E
:1059CC007E1E012921D0022946D003291BD139463C
:1059DC003046BDE8F04707F040BA4FF4047200219E
:1059EC0005F061FF04F0F4FB44F62B11084085F838
:1059FC00159085F84C00000A85F84D00FE2085F8BE
:105A0C007C007F206872BDE8F0874FF00008A4F896
:105A1C00068184F8FB80616814480A460844B0FB90
:105A2C00F1F0C4F8940040F6B830A4F898006389FB
:105A3C00284600F01DF83946304607F00EFA05F0FE
:105A4C0082FE18B1E068FFF77BFF10B184F86C811F
:105A5C00D9E784F86C91D6E74168B4F89A31D4F858
:105A6C0094212846BDE8F04700F002B87FC3C90175
:105A7C0030B500248486048F134D4C43B4FBF2F4F0
:105A8C00048742F210746343B3FBF2F35B1C9BB2CA
:105A9C0003FB02F4C386AC4201D95B1EC3860B4BDD
:105AAC0040F27124B3FBF2F35B1C8387038E6343D8
:105ABC0002EB03135B1EB3FBF2F3C362836A4B432B
:105ACC00B3FBF2F1816230BD0048E801005A62027A
